{
  "abi": [
    {
      "inputs": [],
      "stateMutability": "nonpayable",
      "type": "constructor"
    },
    {
      "inputs": [],
      "name": "BadContractSignature",
      "type": "error"
    },
    {
      "inputs": [
        {
          "internalType": "uint8",
          "name": "v",
          "type": "uint8"
        }
      ],
      "name": "BadSignatureV",
      "type": "error"
    },
    {
      "inputs": [],
      "name": "InvalidSignature",
      "type": "error"
    },
    {
      "inputs": [],
      "name": "InvalidSigner",
      "type": "error"
    },
    {
      "anonymous": false,
      "inputs": [
        {
          "indexed": false,
          "internalType": "address",
          "name": "from",
          "type": "address"
        },
        {
          "indexed": false,
          "internalType": "address",
          "name": "to",
          "type": "address"
        },
        {
          "indexed": false,
          "internalType": "address",
          "name": "collection",
          "type": "address"
        },
        {
          "indexed": false,
          "internalType": "uint256",
          "name": "tokenId",
          "type": "uint256"
        },
        {
          "indexed": false,
          "internalType": "address",
          "name": "currency",
          "type": "address"
        },
        {
          "indexed": false,
          "internalType": "uint256",
          "name": "price",
          "type": "uint256"
        }
      ],
      "name": "OrderExecuted",
      "type": "event"
    },
    {
      "anonymous": false,
      "inputs": [
        {
          "indexed": true,
          "internalType": "address",
          "name": "previousOwner",
          "type": "address"
        },
        {
          "indexed": true,
          "internalType": "address",
          "name": "newOwner",
          "type": "address"
        }
      ],
      "name": "OwnershipTransferred",
      "type": "event"
    },
    {
      "inputs": [
        {
          "internalType": "address",
          "name": "signer",
          "type": "address"
        },
        {
          "internalType": "bytes32",
          "name": "digest",
          "type": "bytes32"
        },
        {
          "internalType": "bytes",
          "name": "signature",
          "type": "bytes"
        }
      ],
      "name": "_assertValidSignature",
      "outputs": [],
      "stateMutability": "view",
      "type": "function"
    },
    {
      "inputs": [],
      "name": "_deriveDomainSeparator",
      "outputs": [
        {
          "internalType": "bytes32",
          "name": "",
          "type": "bytes32"
        }
      ],
      "stateMutability": "view",
      "type": "function"
    },
    {
      "inputs": [
        {
          "internalType": "bytes32",
          "name": "domainSeparator",
          "type": "bytes32"
        },
        {
          "internalType": "bytes32",
          "name": "orderHash",
          "type": "bytes32"
        }
      ],
      "name": "_deriveEIP712Digest",
      "outputs": [
        {
          "internalType": "bytes32",
          "name": "value",
          "type": "bytes32"
        }
      ],
      "stateMutability": "pure",
      "type": "function"
    },
    {
      "inputs": [
        {
          "components": [
            {
              "internalType": "bool",
              "name": "isAsk",
              "type": "bool"
            },
            {
              "internalType": "address",
              "name": "signer",
              "type": "address"
            },
            {
              "internalType": "bytes",
              "name": "signature",
              "type": "bytes"
            },
            {
              "internalType": "uint256",
              "name": "nonce",
              "type": "uint256"
            },
            {
              "internalType": "uint256",
              "name": "startTime",
              "type": "uint256"
            },
            {
              "internalType": "uint256",
              "name": "endTime",
              "type": "uint256"
            },
            {
              "internalType": "address",
              "name": "collection",
              "type": "address"
            },
            {
              "internalType": "uint256",
              "name": "tokenId",
              "type": "uint256"
            },
            {
              "internalType": "uint256",
              "name": "amount",
              "type": "uint256"
            },
            {
              "internalType": "uint256",
              "name": "price",
              "type": "uint256"
            },
            {
              "internalType": "address",
              "name": "currency",
              "type": "address"
            },
            {
              "internalType": "bytes",
              "name": "params",
              "type": "bytes"
            }
          ],
          "internalType": "struct Orders.Order",
          "name": "order",
          "type": "tuple"
        }
      ],
      "name": "fulfillOrder",
      "outputs": [],
      "stateMutability": "nonpayable",
      "type": "function"
    },
    {
      "inputs": [
        {
          "internalType": "address",
          "name": "add",
          "type": "address"
        }
      ],
      "name": "getCurrentNonceForAddress",
      "outputs": [
        {
          "internalType": "uint256",
          "name": "",
          "type": "uint256"
        }
      ],
      "stateMutability": "view",
      "type": "function"
    },
    {
      "inputs": [
        {
          "internalType": "address",
          "name": "add",
          "type": "address"
        }
      ],
      "name": "incrementCurrentNonceForAddress",
      "outputs": [],
      "stateMutability": "nonpayable",
      "type": "function"
    },
    {
      "inputs": [],
      "name": "owner",
      "outputs": [
        {
          "internalType": "address",
          "name": "",
          "type": "address"
        }
      ],
      "stateMutability": "view",
      "type": "function"
    },
    {
      "inputs": [],
      "name": "renounceOwnership",
      "outputs": [],
      "stateMutability": "nonpayable",
      "type": "function"
    },
    {
      "inputs": [
        {
          "internalType": "address",
          "name": "newOwner",
          "type": "address"
        }
      ],
      "name": "transferOwnership",
      "outputs": [],
      "stateMutability": "nonpayable",
      "type": "function"
    },
    {
      "inputs": [
        {
          "internalType": "address",
          "name": "",
          "type": "address"
        }
      ],
      "name": "userCurrentOrderNonce",
      "outputs": [
        {
          "internalType": "uint256",
          "name": "",
          "type": "uint256"
        }
      ],
      "stateMutability": "view",
      "type": "function"
    }
  ],
  "bytecode": {
    "object": "0x608060405234801561001057600080fd5b5061001a3361001f565b61006f565b600080546001600160a01b038381166001600160a01b0319831681178455604051919092169283917f8be0079c531659141344cd1fd0a4f28419497f9722a3daafe3b4186f6b6457e09190a35050565b610f368061007e6000396000f3fe608060405234801561001057600080fd5b506004361061009d5760003560e01c80638da5cb5b116100665780638da5cb5b146101495780639a298edf146101645780639f12b9d914610177578063c3e371d01461017f578063f2fde38b1461019257600080fd5b80621fa7b4146100a25780630645318a146100b757806328754a2c146100f357806366c077b814610113578063715018a614610141575b600080fd5b6100b56100b0366004610a92565b6101a5565b005b6100e06100c5366004610af1565b6001600160a01b031660009081526001602052604090205490565b6040519081526020015b60405180910390f35b6100e0610101366004610af1565b60016020526000908152604090205481565b6100e0610121366004610b0c565b61190160f01b600090815260029290925260229081526042822091905290565b6100b5610215565b6000546040516001600160a01b0390911681526020016100ea565b6100b5610172366004610bfb565b610229565b6100e06103db565b6100b561018d366004610af1565b61053d565b6100b56101a0366004610af1565b610571565b6101ae816105ea565b60006101bd6020830183610c6b565b6101c757336101d7565b6101d76040830160208401610af1565b905060006101e86020840184610c6b565b610201576101fc6040840160208501610af1565b610203565b335b905061021083838361066a565b505050565b61021d610764565b61022760006107be565b565b600080806001600160a01b0386163b1561024d5761024886868661080e565b61032b565b83516040036102945760008480602001905181019061026c9190610c88565b9094506001600160ff1b0381169350905061028c60ff82901c601b610cc2565b91505061032b565b835160410361031257838060200190518101906102b19190610c88565b85519194509250849060409081106102cb576102cb610ce7565b016020015160f81c9050601b81148015906102ea57508060ff16601c14155b1561024857604051630f801e8560e11b815260ff821660048201526024015b60405180910390fd5b604051638baa579f60e01b815260040160405180910390fd5b6040805160008082526020820180845288905260ff841692820192909252606081018590526080810184905260019060a0016020604051602081039080840390855afa15801561037f573d6000803e3d6000fd5b5050604051601f1901519150506001600160a01b03811615806103b45750866001600160a01b0316816001600160a01b031614155b156103d257604051632057875960e21b815260040160405180910390fd5b50505050505050565b6040516c08a92a06e626488dedac2d2dc5609b1b60208201526b1cdd1c9a5b99c81b985b594b60a21b602d8201526e1cdd1c9a5b99c81d995c9cda5bdb8b608a1b60398201526f1d5a5b9d0c8d4d8818da185a5b92590b60821b60488201527f6164647265737320766572696679696e67436f6e7472616374000000000000006058820152602960f81b607182015260009060720160408051808303601f1901815282825280516020918201208383018352600f84526e524b4c204d61726b6574706c61636560881b938201939093528151808301835260018152603160f81b908201528151908101929092527fc80aed6001eb579bef6ecf8ec6632ecb0c96a906bf473289ccf79e73ac90fca8908201527fc89efdaa54c0f20c7adf612882df0950f5a951637e0307cdcb4c672f298b8bc660608201524660808201523060a082015260c00160405160208183030381529060405280519060200120905090565b610545610764565b6001600160a01b038116600090815260016020526040812080549161056983610cfd565b919050555050565b610579610764565b6001600160a01b0381166105de5760405162461bcd60e51b815260206004820152602660248201527f4f776e61626c653a206e6577206f776e657220697320746865207a65726f206160448201526564647265737360d01b6064820152608401610309565b6105e7816107be565b50565b60006105f46103db565b9050600061060d8261012161060886610d16565b6108a7565b90506102106106226040850160208601610af1565b826106306040870187610e0e565b8080601f01602080910402602001604051908101604052809392919081815260200183838082843760009201919091525061022992505050565b61069b3361067e6040860160208701610af1565b61069061016087016101408801610af1565b86610120013561099f565b6106cf6106ae60e0850160c08601610af1565b6106be6040860160208701610af1565b338660e00135876101000135610a21565b7f0824c132635ac34a25033ff19cf7cab2f3718a3abe1b1547f14a52a672386a7b828261070260e0870160c08801610af1565b60e087013561071961016089016101408a01610af1565b604080516001600160a01b0396871681529486166020860152928516928401929092526060830152909116608082015261012085013560a082015260c00160405180910390a1505050565b6000546001600160a01b031633146102275760405162461bcd60e51b815260206004820181905260248201527f4f776e61626c653a2063616c6c6572206973206e6f7420746865206f776e65726044820152606401610309565b600080546001600160a01b038381166001600160a01b0319831681178455604051919092169283917f8be0079c531659141344cd1fd0a4f28419497f9722a3daafe3b4186f6b6457e09190a35050565b604051630b135d3f60e11b808252906001600160a01b03851690631626ba7e9061083e9086908690600401610e5c565b602060405180830381865afa15801561085b573d6000803e3d6000fd5b505050506040513d601f19601f8201168201806040525081019061087f9190610eb9565b6001600160e01b0319161461021057604051632057875960e21b815260040160405180910390fd5b60007f88acf0726b4f06dcf6f14735ebc2f2939c25239e2061a12f12db51f5a3fd5bd482600001518360200151846060015185608001518660a001518760c001518860e001518961010001518a61012001518b61014001518c6101600151805190602001206040516020016109829c9b9a999897969594939291909b8c5299151560208c01526001600160a01b0398891660408c015260608b019790975260808a019590955260a089019390935290851660c088015260e0870152610100860152610120850152166101408301526101608201526101800190565b604051602081830303815290604052805190602001209050919050565b6040516323b872dd60e01b81526001600160a01b0385811660048301528481166024830152604482018390528316906323b872dd906064016020604051808303816000875af11580156109f6573d6000803e3d6000fd5b505050506040513d601f19601f82011682018060405250810190610a1a9190610ee3565b5050505050565b604051632142170760e11b81526001600160a01b0385811660048301528481166024830152604482018490528616906342842e0e90606401600060405180830381600087803b158015610a7357600080fd5b505af1158015610a87573d6000803e3d6000fd5b505050505050505050565b600060208284031215610aa457600080fd5b813567ffffffffffffffff811115610abb57600080fd5b82016101808185031215610ace57600080fd5b9392505050565b80356001600160a01b0381168114610aec57600080fd5b919050565b600060208284031215610b0357600080fd5b610ace82610ad5565b60008060408385031215610b1f57600080fd5b50508035926020909101359150565b634e487b7160e01b600052604160045260246000fd5b604051610180810167ffffffffffffffff81118282101715610b6857610b68610b2e565b60405290565b600082601f830112610b7f57600080fd5b813567ffffffffffffffff80821115610b9a57610b9a610b2e565b604051601f8301601f19908116603f01168101908282118183101715610bc257610bc2610b2e565b81604052838152866020858801011115610bdb57600080fd5b836020870160208301376000602085830101528094505050505092915050565b600080600060608486031215610c1057600080fd5b610c1984610ad5565b925060208401359150604084013567ffffffffffffffff811115610c3c57600080fd5b610c4886828701610b6e565b9150509250925092565b80151581146105e757600080fd5b8035610aec81610c52565b600060208284031215610c7d57600080fd5b8135610ace81610c52565b60008060408385031215610c9b57600080fd5b505080516020909101519092909150565b634e487b7160e01b600052601160045260246000fd5b600060ff821660ff84168060ff03821115610cdf57610cdf610cac565b019392505050565b634e487b7160e01b600052603260045260246000fd5b600060018201610d0f57610d0f610cac565b5060010190565b60006101808236031215610d2957600080fd5b610d31610b44565b610d3a83610c60565b8152610d4860208401610ad5565b6020820152604083013567ffffffffffffffff80821115610d6857600080fd5b610d7436838701610b6e565b6040840152606085013560608401526080850135608084015260a085013560a0840152610da360c08601610ad5565b60c084015260e08581013590840152610100808601359084015261012080860135908401526101409150610dd8828601610ad5565b8284015261016091508185013581811115610df257600080fd5b610dfe36828801610b6e565b8385015250505080915050919050565b6000808335601e19843603018112610e2557600080fd5b83018035915067ffffffffffffffff821115610e4057600080fd5b602001915036819003821315610e5557600080fd5b9250929050565b82815260006020604081840152835180604085015260005b81811015610e9057858101830151858201606001528201610e74565b81811115610ea2576000606083870101525b50601f01601f191692909201606001949350505050565b600060208284031215610ecb57600080fd5b81516001600160e01b031981168114610ace57600080fd5b600060208284031215610ef557600080fd5b8151610ace81610c5256fea264697066735822122095867a44989d92a828340c9241b9084739a64938c1e756160321c756f08a8f4c64736f6c634300080f0033",
    "linkReferences": {}
  },
  "methodIdentifiers": {
    "_assertValidSignature(address,bytes32,bytes)": "9a298edf",
    "_deriveDomainSeparator()": "9f12b9d9",
    "_deriveEIP712Digest(bytes32,bytes32)": "66c077b8",
    "fulfillOrder((bool,address,bytes,uint256,uint256,uint256,address,uint256,uint256,uint256,address,bytes))": "001fa7b4",
    "getCurrentNonceForAddress(address)": "0645318a",
    "incrementCurrentNonceForAddress(address)": "c3e371d0",
    "owner()": "8da5cb5b",
    "renounceOwnership()": "715018a6",
    "transferOwnership(address)": "f2fde38b",
    "userCurrentOrderNonce(address)": "28754a2c"
  },
  "id": 26
}