{
  "abi": [
    {
      "inputs": [],
      "stateMutability": "nonpayable",
      "type": "constructor"
    },
    {
      "anonymous": false,
      "inputs": [
        {
          "indexed": false,
          "internalType": "address",
          "name": "from",
          "type": "address"
        },
        {
          "indexed": false,
          "internalType": "address",
          "name": "to",
          "type": "address"
        },
        {
          "indexed": false,
          "internalType": "address",
          "name": "collection",
          "type": "address"
        },
        {
          "indexed": false,
          "internalType": "uint256",
          "name": "tokenId",
          "type": "uint256"
        },
        {
          "indexed": false,
          "internalType": "address",
          "name": "currency",
          "type": "address"
        },
        {
          "indexed": false,
          "internalType": "uint256",
          "name": "price",
          "type": "uint256"
        }
      ],
      "name": "OrderExecuted",
      "type": "event"
    },
    {
      "anonymous": false,
      "inputs": [
        {
          "indexed": true,
          "internalType": "address",
          "name": "previousOwner",
          "type": "address"
        },
        {
          "indexed": true,
          "internalType": "address",
          "name": "newOwner",
          "type": "address"
        }
      ],
      "name": "OwnershipTransferred",
      "type": "event"
    },
    {
      "inputs": [
        {
          "components": [
            {
              "internalType": "bool",
              "name": "isAsk",
              "type": "bool"
            },
            {
              "internalType": "address",
              "name": "signer",
              "type": "address"
            },
            {
              "internalType": "bytes",
              "name": "signature",
              "type": "bytes"
            },
            {
              "internalType": "uint256",
              "name": "nonce",
              "type": "uint256"
            },
            {
              "internalType": "uint256",
              "name": "startTime",
              "type": "uint256"
            },
            {
              "internalType": "uint256",
              "name": "endTime",
              "type": "uint256"
            },
            {
              "internalType": "address",
              "name": "collection",
              "type": "address"
            },
            {
              "internalType": "uint256",
              "name": "tokenId",
              "type": "uint256"
            },
            {
              "internalType": "uint256",
              "name": "amount",
              "type": "uint256"
            },
            {
              "internalType": "uint256",
              "name": "price",
              "type": "uint256"
            },
            {
              "internalType": "address",
              "name": "currency",
              "type": "address"
            },
            {
              "internalType": "bytes",
              "name": "params",
              "type": "bytes"
            }
          ],
          "internalType": "struct Orders.Order",
          "name": "order",
          "type": "tuple"
        }
      ],
      "name": "fulfillOrder",
      "outputs": [],
      "stateMutability": "nonpayable",
      "type": "function"
    },
    {
      "inputs": [
        {
          "internalType": "address",
          "name": "add",
          "type": "address"
        }
      ],
      "name": "getCurrentNonceForAddress",
      "outputs": [
        {
          "internalType": "uint256",
          "name": "",
          "type": "uint256"
        }
      ],
      "stateMutability": "view",
      "type": "function"
    },
    {
      "inputs": [
        {
          "internalType": "address",
          "name": "add",
          "type": "address"
        }
      ],
      "name": "incrementCurrentNonceForAddress",
      "outputs": [],
      "stateMutability": "nonpayable",
      "type": "function"
    },
    {
      "inputs": [],
      "name": "owner",
      "outputs": [
        {
          "internalType": "address",
          "name": "",
          "type": "address"
        }
      ],
      "stateMutability": "view",
      "type": "function"
    },
    {
      "inputs": [],
      "name": "renounceOwnership",
      "outputs": [],
      "stateMutability": "nonpayable",
      "type": "function"
    },
    {
      "inputs": [
        {
          "internalType": "address",
          "name": "newOwner",
          "type": "address"
        }
      ],
      "name": "transferOwnership",
      "outputs": [],
      "stateMutability": "nonpayable",
      "type": "function"
    },
    {
      "inputs": [
        {
          "internalType": "address",
          "name": "",
          "type": "address"
        }
      ],
      "name": "userCurrentOrderNonce",
      "outputs": [
        {
          "internalType": "uint256",
          "name": "",
          "type": "uint256"
        }
      ],
      "stateMutability": "view",
      "type": "function"
    }
  ],
  "bytecode": {
    "object": "0x608060405234801561001057600080fd5b5061001a3361001f565b61006f565b600080546001600160a01b038381166001600160a01b0319831681178455604051919092169283917f8be0079c531659141344cd1fd0a4f28419497f9722a3daafe3b4186f6b6457e09190a35050565b6106108061007e6000396000f3fe608060405234801561001057600080fd5b506004361061007c5760003560e01c8063715018a61161005b578063715018a6146100f25780638da5cb5b146100fa578063c3e371d014610115578063f2fde38b1461012857600080fd5b80621fa7b4146100815780630645318a1461009657806328754a2c146100d2575b600080fd5b61009461008f3660046104ff565b61013b565b005b6100bf6100a4366004610542565b6001600160a01b031660009081526001602052604090205490565b6040519081526020015b60405180910390f35b6100bf6100e0366004610542565b60016020526000908152604090205481565b6100946101a2565b6000546040516001600160a01b0390911681526020016100c9565b610094610123366004610542565b6101b6565b610094610136366004610542565b6101ea565b600061014a6020830183610579565b6101545733610164565b6101646040830160208401610542565b905060006101756020840184610579565b61018e576101896040840160208501610542565b610190565b335b905061019d838383610268565b505050565b6101aa610362565b6101b460006103bc565b565b6101be610362565b6001600160a01b03811660009081526001602052604081208054916101e283610596565b919050555050565b6101f2610362565b6001600160a01b03811661025c5760405162461bcd60e51b815260206004820152602660248201527f4f776e61626c653a206e6577206f776e657220697320746865207a65726f206160448201526564647265737360d01b60648201526084015b60405180910390fd5b610265816103bc565b50565b6102993361027c6040860160208701610542565b61028e61016087016101408801610542565b86610120013561040c565b6102cd6102ac60e0850160c08601610542565b6102bc6040860160208701610542565b338660e0013587610100013561048e565b7f0824c132635ac34a25033ff19cf7cab2f3718a3abe1b1547f14a52a672386a7b828261030060e0870160c08801610542565b60e087013561031761016089016101408a01610542565b604080516001600160a01b0396871681529486166020860152928516928401929092526060830152909116608082015261012085013560a082015260c00160405180910390a1505050565b6000546001600160a01b031633146101b45760405162461bcd60e51b815260206004820181905260248201527f4f776e61626c653a2063616c6c6572206973206e6f7420746865206f776e65726044820152606401610253565b600080546001600160a01b038381166001600160a01b0319831681178455604051919092169283917f8be0079c531659141344cd1fd0a4f28419497f9722a3daafe3b4186f6b6457e09190a35050565b6040516323b872dd60e01b81526001600160a01b0385811660048301528481166024830152604482018390528316906323b872dd906064016020604051808303816000875af1158015610463573d6000803e3d6000fd5b505050506040513d601f19601f8201168201806040525081019061048791906105bd565b5050505050565b604051632142170760e11b81526001600160a01b0385811660048301528481166024830152604482018490528616906342842e0e90606401600060405180830381600087803b1580156104e057600080fd5b505af11580156104f4573d6000803e3d6000fd5b505050505050505050565b60006020828403121561051157600080fd5b813567ffffffffffffffff81111561052857600080fd5b8201610180818503121561053b57600080fd5b9392505050565b60006020828403121561055457600080fd5b81356001600160a01b038116811461053b57600080fd5b801515811461026557600080fd5b60006020828403121561058b57600080fd5b813561053b8161056b565b6000600182016105b657634e487b7160e01b600052601160045260246000fd5b5060010190565b6000602082840312156105cf57600080fd5b815161053b8161056b56fea26469706673582212202e545ab19c69e3c9384ef22638f1e827cb5a0f193d4d0ae1f73d22bc785f973664736f6c634300080f0033",
    "linkReferences": {}
  },
  "methodIdentifiers": {
    "fulfillOrder((bool,address,bytes,uint256,uint256,uint256,address,uint256,uint256,uint256,address,bytes))": "001fa7b4",
    "getCurrentNonceForAddress(address)": "0645318a",
    "incrementCurrentNonceForAddress(address)": "c3e371d0",
    "owner()": "8da5cb5b",
    "renounceOwnership()": "715018a6",
    "transferOwnership(address)": "f2fde38b",
    "userCurrentOrderNonce(address)": "28754a2c"
  },
  "id": 26
}