{
  "abi": [
    {
      "inputs": [],
      "stateMutability": "nonpayable",
      "type": "constructor"
    },
    {
      "inputs": [],
      "name": "InvalidNonce",
      "type": "error"
    },
    {
      "inputs": [],
      "name": "InvalidTokenAmount",
      "type": "error"
    },
    {
      "inputs": [],
      "name": "OrderExpired",
      "type": "error"
    },
    {
      "inputs": [],
      "name": "OrderNotActive",
      "type": "error"
    },
    {
      "anonymous": false,
      "inputs": [
        {
          "indexed": true,
          "internalType": "address",
          "name": "user",
          "type": "address"
        },
        {
          "indexed": false,
          "internalType": "uint256",
          "name": "newMinNonce",
          "type": "uint256"
        }
      ],
      "name": "CancelAllOrders",
      "type": "event"
    },
    {
      "anonymous": false,
      "inputs": [
        {
          "indexed": true,
          "internalType": "address",
          "name": "user",
          "type": "address"
        },
        {
          "indexed": false,
          "internalType": "uint256[]",
          "name": "orderNonces",
          "type": "uint256[]"
        }
      ],
      "name": "CancelMultipleOrders",
      "type": "event"
    },
    {
      "anonymous": false,
      "inputs": [
        {
          "indexed": false,
          "internalType": "address",
          "name": "from",
          "type": "address"
        },
        {
          "indexed": false,
          "internalType": "address",
          "name": "to",
          "type": "address"
        },
        {
          "indexed": false,
          "internalType": "address",
          "name": "collection",
          "type": "address"
        },
        {
          "indexed": false,
          "internalType": "uint256",
          "name": "tokenId",
          "type": "uint256"
        },
        {
          "indexed": false,
          "internalType": "address",
          "name": "currency",
          "type": "address"
        },
        {
          "indexed": false,
          "internalType": "uint256",
          "name": "price",
          "type": "uint256"
        }
      ],
      "name": "OrderFulfilled",
      "type": "event"
    },
    {
      "anonymous": false,
      "inputs": [
        {
          "indexed": true,
          "internalType": "address",
          "name": "previousOwner",
          "type": "address"
        },
        {
          "indexed": true,
          "internalType": "address",
          "name": "newOwner",
          "type": "address"
        }
      ],
      "name": "OwnershipTransferred",
      "type": "event"
    },
    {
      "inputs": [
        {
          "components": [
            {
              "internalType": "bool",
              "name": "isAsk",
              "type": "bool"
            },
            {
              "internalType": "address",
              "name": "signer",
              "type": "address"
            },
            {
              "internalType": "bytes",
              "name": "signature",
              "type": "bytes"
            },
            {
              "internalType": "uint256",
              "name": "nonce",
              "type": "uint256"
            },
            {
              "internalType": "uint256",
              "name": "startTime",
              "type": "uint256"
            },
            {
              "internalType": "uint256",
              "name": "endTime",
              "type": "uint256"
            },
            {
              "internalType": "address",
              "name": "collection",
              "type": "address"
            },
            {
              "internalType": "uint256",
              "name": "tokenId",
              "type": "uint256"
            },
            {
              "internalType": "uint256",
              "name": "amount",
              "type": "uint256"
            },
            {
              "internalType": "uint256",
              "name": "price",
              "type": "uint256"
            },
            {
              "internalType": "address",
              "name": "currency",
              "type": "address"
            },
            {
              "internalType": "bytes",
              "name": "params",
              "type": "bytes"
            }
          ],
          "internalType": "struct Orders.Order",
          "name": "order",
          "type": "tuple"
        }
      ],
      "name": "fulfillOrder",
      "outputs": [],
      "stateMutability": "nonpayable",
      "type": "function"
    },
    {
      "inputs": [
        {
          "internalType": "address",
          "name": "add",
          "type": "address"
        }
      ],
      "name": "getCurrentNonceForAddress",
      "outputs": [
        {
          "internalType": "uint256",
          "name": "",
          "type": "uint256"
        }
      ],
      "stateMutability": "view",
      "type": "function"
    },
    {
      "inputs": [
        {
          "internalType": "address",
          "name": "add",
          "type": "address"
        }
      ],
      "name": "incrementCurrentNonceForAddress",
      "outputs": [],
      "stateMutability": "nonpayable",
      "type": "function"
    },
    {
      "inputs": [],
      "name": "owner",
      "outputs": [
        {
          "internalType": "address",
          "name": "",
          "type": "address"
        }
      ],
      "stateMutability": "view",
      "type": "function"
    },
    {
      "inputs": [],
      "name": "renounceOwnership",
      "outputs": [],
      "stateMutability": "nonpayable",
      "type": "function"
    },
    {
      "inputs": [
        {
          "internalType": "address",
          "name": "newOwner",
          "type": "address"
        }
      ],
      "name": "transferOwnership",
      "outputs": [],
      "stateMutability": "nonpayable",
      "type": "function"
    },
    {
      "inputs": [
        {
          "internalType": "address",
          "name": "",
          "type": "address"
        }
      ],
      "name": "userCurrentOrderNonce",
      "outputs": [
        {
          "internalType": "uint256",
          "name": "",
          "type": "uint256"
        }
      ],
      "stateMutability": "view",
      "type": "function"
    }
  ],
  "bytecode": {
    "object": "0x608060405234801561001057600080fd5b5061001a3361001f565b61006f565b600080546001600160a01b038381166001600160a01b0319831681178455604051919092169283917f8be0079c531659141344cd1fd0a4f28419497f9722a3daafe3b4186f6b6457e09190a35050565b61068b8061007e6000396000f3fe608060405234801561001057600080fd5b506004361061007c5760003560e01c8063715018a61161005b578063715018a6146100f25780638da5cb5b146100fa578063c3e371d014610115578063f2fde38b1461012857600080fd5b80621fa7b4146100815780630645318a1461009657806328754a2c146100d2575b600080fd5b61009461008f36600461057a565b61013b565b005b6100bf6100a43660046105bd565b6001600160a01b031660009081526001602052604090205490565b6040519081526020015b60405180910390f35b6100bf6100e03660046105bd565b60016020526000908152604090205481565b6100946101a2565b6000546040516001600160a01b0390911681526020016100c9565b6100946101233660046105bd565b6101b6565b6100946101363660046105bd565b6101ea565b600061014a60208301836105f4565b6101545733610164565b61016460408301602084016105bd565b9050600061017560208401846105f4565b61018e5761018960408401602085016105bd565b610190565b335b905061019d838383610268565b505050565b6101aa610362565b6101b460006103bc565b565b6101be610362565b6001600160a01b03811660009081526001602052604081208054916101e283610611565b919050555050565b6101f2610362565b6001600160a01b03811661025c5760405162461bcd60e51b815260206004820152602660248201527f4f776e61626c653a206e6577206f776e657220697320746865207a65726f206160448201526564647265737360d01b60648201526084015b60405180910390fd5b610265816103bc565b50565b6102993361027c60408601602087016105bd565b61028e610160870161014088016105bd565b86610120013561040c565b6102cd6102ac60e0850160c086016105bd565b6102bc60408601602087016105bd565b338660e0013587610100013561048e565b7f765d8295c9ac8cbc0abff4009436dec5578ac886d6917ae97235808d63b55ea4828261030060e0870160c088016105bd565b60e087013561031761016089016101408a016105bd565b604080516001600160a01b0396871681529486166020860152928516928401929092526060830152909116608082015261012085013560a082015260c00160405180910390a1505050565b6000546001600160a01b031633146101b45760405162461bcd60e51b815260206004820181905260248201527f4f776e61626c653a2063616c6c6572206973206e6f7420746865206f776e65726044820152606401610253565b600080546001600160a01b038381166001600160a01b0319831681178455604051919092169283917f8be0079c531659141344cd1fd0a4f28419497f9722a3daafe3b4186f6b6457e09190a35050565b6040516323b872dd60e01b81526001600160a01b0385811660048301528481166024830152604482018390528316906323b872dd906064016020604051808303816000875af1158015610463573d6000803e3d6000fd5b505050506040513d601f19601f820116820180604052508101906104879190610638565b5050505050565b8060010361050657604051632142170760e11b81526001600160a01b0385811660048301528481166024830152604482018490528616906342842e0e906064015b600060405180830381600087803b1580156104e957600080fd5b505af11580156104fd573d6000803e3d6000fd5b50505050610487565b600181111561056157604051637921219560e11b81526001600160a01b0385811660048301528481166024830152604482018490526064820183905260a06084830152600060a483015286169063f242432a9060c4016104cf565b604051632160733960e01b815260040160405180910390fd5b60006020828403121561058c57600080fd5b813567ffffffffffffffff8111156105a357600080fd5b820161018081850312156105b657600080fd5b9392505050565b6000602082840312156105cf57600080fd5b81356001600160a01b03811681146105b657600080fd5b801515811461026557600080fd5b60006020828403121561060657600080fd5b81356105b6816105e6565b60006001820161063157634e487b7160e01b600052601160045260246000fd5b5060010190565b60006020828403121561064a57600080fd5b81516105b6816105e656fea26469706673582212202402d69b80ec1034dc824c94f13b3e4e2ab400cb6e7624ff7d17a9f1eb29b04b64736f6c634300080f0033",
    "linkReferences": {}
  },
  "methodIdentifiers": {
    "fulfillOrder((bool,address,bytes,uint256,uint256,uint256,address,uint256,uint256,uint256,address,bytes))": "001fa7b4",
    "getCurrentNonceForAddress(address)": "0645318a",
    "incrementCurrentNonceForAddress(address)": "c3e371d0",
    "owner()": "8da5cb5b",
    "renounceOwnership()": "715018a6",
    "transferOwnership(address)": "f2fde38b",
    "userCurrentOrderNonce(address)": "28754a2c"
  },
  "id": 27
}