{
  "abi": [
    {
      "inputs": [],
      "stateMutability": "nonpayable",
      "type": "constructor"
    },
    {
      "anonymous": false,
      "inputs": [
        {
          "indexed": true,
          "internalType": "address",
          "name": "previousOwner",
          "type": "address"
        },
        {
          "indexed": true,
          "internalType": "address",
          "name": "newOwner",
          "type": "address"
        }
      ],
      "name": "OwnershipTransferred",
      "type": "event"
    },
    {
      "inputs": [
        {
          "internalType": "address",
          "name": "add",
          "type": "address"
        }
      ],
      "name": "getCurrentNonceForAddress",
      "outputs": [
        {
          "internalType": "uint256",
          "name": "",
          "type": "uint256"
        }
      ],
      "stateMutability": "view",
      "type": "function"
    },
    {
      "inputs": [
        {
          "internalType": "address",
          "name": "add",
          "type": "address"
        }
      ],
      "name": "incrementCurrentNonceForAddress",
      "outputs": [],
      "stateMutability": "nonpayable",
      "type": "function"
    },
    {
      "inputs": [],
      "name": "owner",
      "outputs": [
        {
          "internalType": "address",
          "name": "",
          "type": "address"
        }
      ],
      "stateMutability": "view",
      "type": "function"
    },
    {
      "inputs": [],
      "name": "renounceOwnership",
      "outputs": [],
      "stateMutability": "nonpayable",
      "type": "function"
    },
    {
      "inputs": [
        {
          "internalType": "address",
          "name": "newOwner",
          "type": "address"
        }
      ],
      "name": "transferOwnership",
      "outputs": [],
      "stateMutability": "nonpayable",
      "type": "function"
    },
    {
      "inputs": [
        {
          "internalType": "address",
          "name": "",
          "type": "address"
        }
      ],
      "name": "userCurrentOrderNonce",
      "outputs": [
        {
          "internalType": "uint256",
          "name": "",
          "type": "uint256"
        }
      ],
      "stateMutability": "view",
      "type": "function"
    }
  ],
  "bytecode": {
    "object": "0x608060405234801561001057600080fd5b5061001a3361001f565b61006f565b600080546001600160a01b038381166001600160a01b0319831681178455604051919092169283917f8be0079c531659141344cd1fd0a4f28419497f9722a3daafe3b4186f6b6457e09190a35050565b61030b8061007e6000396000f3fe608060405234801561001057600080fd5b50600436106100625760003560e01c80630645318a1461006757806328754a2c146100a3578063715018a6146100c35780638da5cb5b146100cd578063c3e371d0146100e8578063f2fde38b146100fb575b600080fd5b61009061007536600461027e565b6001600160a01b031660009081526001602052604090205490565b6040519081526020015b60405180910390f35b6100906100b136600461027e565b60016020526000908152604090205481565b6100cb61010e565b005b6000546040516001600160a01b03909116815260200161009a565b6100cb6100f636600461027e565b610122565b6100cb61010936600461027e565b610156565b6101166101d4565b610120600061022e565b565b61012a6101d4565b6001600160a01b038116600090815260016020526040812080549161014e836102ae565b919050555050565b61015e6101d4565b6001600160a01b0381166101c85760405162461bcd60e51b815260206004820152602660248201527f4f776e61626c653a206e6577206f776e657220697320746865207a65726f206160448201526564647265737360d01b60648201526084015b60405180910390fd5b6101d18161022e565b50565b6000546001600160a01b031633146101205760405162461bcd60e51b815260206004820181905260248201527f4f776e61626c653a2063616c6c6572206973206e6f7420746865206f776e657260448201526064016101bf565b600080546001600160a01b038381166001600160a01b0319831681178455604051919092169283917f8be0079c531659141344cd1fd0a4f28419497f9722a3daafe3b4186f6b6457e09190a35050565b60006020828403121561029057600080fd5b81356001600160a01b03811681146102a757600080fd5b9392505050565b6000600182016102ce57634e487b7160e01b600052601160045260246000fd5b506001019056fea264697066735822122016e8fb9cf8d82c1d788f1e482dc042a0a6cfe8ca5335c6c2d914a3b5783bf7bd64736f6c634300080f0033",
    "linkReferences": {}
  },
  "methodIdentifiers": {
    "getCurrentNonceForAddress(address)": "0645318a",
    "incrementCurrentNonceForAddress(address)": "c3e371d0",
    "owner()": "8da5cb5b",
    "renounceOwnership()": "715018a6",
    "transferOwnership(address)": "f2fde38b",
    "userCurrentOrderNonce(address)": "28754a2c"
  },
  "id": 9
}